{
  "contractName": "HelloWorld",
  "abi": [
    {
      "constant": true,
      "inputs": [],
      "name": "hello",
      "outputs": [
        {
          "name": "",
          "type": "string"
        }
      ],
      "payable": false,
      "stateMutability": "pure",
      "type": "function"
    }
  ],
  "bytecode": "0x608060405234801561001057600080fd5b50610114806100206000396000f3fe6080604052348015600f57600080fd5b506004361060285760003560e01c806319ff1d2114602d575b600080fd5b603360ab565b6040518080602001828103825283818151815260200191508051906020019080838360005b8381101560715780820151818401526020810190506058565b50505050905090810190601f168015609d5780820380516001836020036101000a031916815260200191505b509250505060405180910390f35b60606040518060400160405280600c81526020017f48656c6c6f7720576f726c64000000000000000000000000000000000000000081525090509056fea165627a7a723058202f85fcce3b131ce0388bffbd79e8588ec0b54990a8172c5903307961b9340a9f0029",
  "source": "pragma solidity ^0.5.0;\n\ncontract HelloWorld {\n\n    function hello() public pure returns (string memory){\n        return 'Hellow World';\n\n        }\n}\n",
  "sourcePath": "/Users/joenakamura/Projects/Stockmanage/truffle/contracts/ManageDocument.sol",
  "compiler": {
    "name": "solc",
    "version": "0.5.8+commit.23d335f2.Emscripten.clang"
  },
  "schemaVersion": "3.0.11",
  "updatedAt": "2019-07-04T05:19:02.106Z",
  "devdoc": {
    "methods": {}
  },
  "userdoc": {
    "methods": {}
  }
}